:10000000F8FF0020110400006F1200006F120000C2
:100010006F1200006F1200006F1200006F120000DC
:100020006F1200006F1200006F1200006F120000CC
:100030006F1200006F1200006F1200006F120000BC
:100040006F1200006F1200006F1200006F120000AC
:100050006F1200006F1200006F1200006F1200009C
:100060006F1200006F1200006F1200006F1200008C
:100070006F1200006F1200006F1200006F1200007C
:100080006F1200006F1200006F1200006F1200006C
:100090006F1200006F1200006F1200006F1200005C
:1000A0006F1200006F1200006F1200006F1200004C
:1000B0006F1200006F1200006F1200006F1200003C
:1000C0006F1200006F1200006F1200006F1200002C
:1000D0006F1200006F1200006F1200006F1200001C
:1000E0006F1200006F1200006F1200006F1200000C
:1000F0006F120000573700006F12000079370000C0
:100100006F1200009B3700006F120000BD37000027
:100110006F120000DF3700006F120000013800008E
:100120006F1200006F1200006F1200006F120000CB
:100130006F1200006F12000061280000712800009B
:10014000812800006F1200006F1200006F12000083
:10015000414800004F4800005D4800006B48000027
:100160006F1200006F1200006F1200006F1200008B
:100170006F1200006F1200006F1200006F1200007B
:100180006F1200006F1200006F1200006F1200006B
:100190006F120000E73800006F12000029400000D5
:1001A00067400000E71C0000DD4000001B4100002C
:1001B0006F1200006F1200006F1200006F1200003B
:1001C0006F1200006F1200006F1200006F1200002B
:1001D0006F1200006F1200006F1200006F1200001B
:1001E0006F1200006F1200006F1200006F1200000B
:10040000FFFFFFFFFFFFFFFFFFFFFFFFFEFFFFFFFD
:100410004FF000004FF000014FF000024FF00003DA
:100420004FF000044FF000054FF000064FF00007BA
:100430004FF000084FF000094FF0000A4FF0000B9A
:100440004FF0000C62B604F057F9FEE72DE9F04FCB
:10045000A1B08246002017461D4602910B900DF177
:10046000440B6FF000490AE017F8011B0298D047CF
:100470000290002800F0A8820B98401C0B9038785E
:1004800008B90B98A2E22528EED10020059006902D
:100490000790089009900A9001E040F0010017F8D9
:1004A000011F2029F9D023290DD02B2904D02D2973
:1004B00006D030290AD00CE040F0020080B2EEE70E
:1004C00040F00400FAE740F00800F7E740F01000C1
:1004D000F4E72A290ED12968296051F8042B2960F4
:1004E000002A0D9204D5514240F004000D9180B2D3
:1004F0007F1C11E000210D9109E00D99494505D0BF
:1005000001EB810302EB430130390D917F1C3A78F6
:10051000A2F130010A29F0D339782E2903D04FF007
:10052000FF310C911DE017F8011F2A2907D1296816
:1005300029607F1C51F8042B29600C9211E00021E6
:100540000C9109E00C99494505D001EB810302EBC0
:10055000430130390C917F1C3A78A2F130010A290D
:10056000F0D3ADF838000FF67440397800F054FE3F
:1005700008B117F8010B8DF83A009DF83A00682889
:1005800002BF39786829622005D06C2804BF38780A
:100590006C2803D171208DF83A007F1C11A80490BB
:1005A00017F8014BB4F125002AD01C3800F0CC809C
:1005B000001F022840F2C880133800F0EE8009388E
:1005C00000F0C280801E00F04F81401E00F02481A8
:1005D000401E022840F2B880001F00F01D81401F1D
:1005E00000F08380401E00F0D880401E29D0C01E3D
:1005F0000CD0801E00F0D180C01E00F0CE803DE106
:100600000120059025208DF8440043E128682860EA
:1006100050F8044B28600394DDF83080B8F1000FE7
:1006200004D5204600F008FE804607E0424600213F
:10063000204600F01DFE08B1A0EB0408CDF818809C
:1006400028E1296829604FF03C0851F8040B296023
:100650000021CDE9000111A80390DDE90001049C0F
:1006600011B908B90C9AC2B10206120FA0EB02121E
:100670003032D2B23A2AA8BF27320009A8F10103CA
:1006800040EA017009091A5508BF0028984604D0AD
:10069000039A08EB04039A42E6D308EB04000390A4
:1006A000C8F13C010C980691814209DA401A089081
:1006B0004FF6EF71BDF838000840ADF83800E9E0BA
:1006C000002840F1E7809DF8380000F01400102861
:1006D00040F0E0800D98059A801A089A801A401A16
:1006E0000128C0F2D7800890D4E09DF83A00622833
:1006F0001AD0682806D06A280CD06C281CD0712823
:1007000008D019E02868286050F8041B28600B986E
:100710000880BFE02868286050F8042B28600B98F8
:10072000C117C2E90001B5E02868286050F8041B31
:1007300028600B980870ADE02868286050F8041B0A
:1007400028600B980860A5E02868C01D20F007020B
:100750002A60D2E9000108322A60CDE900010029AF
:1007600003D5012005902D200CE0BDF8380081074D
:1007700003D5012005902B2004E0C00704D50120FB
:10078000059020208DF84400059911A808180390C1
:10079000214600A800F0D8F97CE09DF83A206C2AA8
:1007A0000DD0712A18BF6A2A09D12868C01D20F00F
:1007B00007032B60D3E9000108332B6005E02968AB
:1007C000296051F8040B29600021CDE90001682A55
:1007D00008BF80B207D0622A08BFC0B203D0742A13
:1007E00018BF7A2A02D10021CDE900019DF8380016
:1007F000000730D5DDE90001002908BF00282AD014
:1008000044F02000782826D130208DF844008BF861
:100810000140022005901EE09DF83A00294600F0B4
:10082000D8F8CDE90001002904DA0598411C0591AA
:100830002D210EE0BDF83800810704D50598411C34
:1008400005912B2105E0C00705D50598411C0591B0
:10085000202100F80B10059911A8081803902146D3
:1008600000A800F0EDF815E0012005902868286048
:1008700050F8041B28608DF844100BE0012005900F
:100880002520002C8DF8440004D00598411C0591CA
:1008900000F80B400D980599401A0899401A0699DE
:1008A000401A0999401A0799401A0A99A0EB0108C1
:1008B0009DF8380040070FD420208DF84000002418
:1008C00008E0012310AA00A9504600F070FC00289F
:1008D0007AD1641C4445F4DB059C11AE0AE016F89D
:1008E000011B0298D047029000286DD00B98401C45
:1008F0000B90641E002CF2D130208DF840000026B1
:10090000089C08E0012310AA00A9504600F04FFC03
:10091000002859D1761CA642F4DB069C039E0AE00F
:1009200016F8011B0298D047029000284CD00B9873
:10093000401C0B90641E002CF2D130208DF840003A
:100940000026099C07E0012310AA00A9504600F0E8
:100950002EFCC8BB761CA642F5DB03980699079CC3
:100960000E1809E016F8011B0298D047029058B300
:100970000B98401C0B90641E002CF3D130208DF896
:10098000400000260A9C07E0012310AA00A9504657
:1009900000F00DFCC0B9761CA642F5DB9DF83800CE
:1009A00040077FF56CAD20208DF84000002400E06A
:1009B000641C4445BFF663AD012310AA00A950464C
:1009C00000F0F5FB0028F3D04FF0FF3021B0BDE878
:1009D000F08F622826D068281DD06A2808D06C289D
:1009E00027D0712804D0742823D07A280CD020E096
:1009F0000868C01D20F007000860D0E90023083017
:100A000008601946104670470A680A6052F8040BDD
:100A10000A60002170470A680A6052F8040B0A60F5
:100A200000B20BE00A680A6052F8040B0A6040B298
:100A300004E00A680A6052F8040B0A60C1177047A4
:100A40002DE9FA4E05460A462F696F2A08BF082489
:100A500005D041F02000782814BF0A2410243C2639
:100A6000D5E90001642A18BF692A81468A4605D162
:100A7000002903DAD9F100096AEB4A0ABAF1000F3A
:100A800008BFB9F1000F0CD1286B50B9082C36D132
:100A900095F83800000732D530203B2687F83B0018
:100AA0002DE0E31748465146224600F00DFCA4FB1A
:100AB0000023A9EB02023032D2B2A6F1010B3A2A8E
:100AC0005E4603DB9DF80030513B9A1881465FEA91
:100AD000010A0BF8072008BFB9F1000F03D0E8683E
:100AE000F1198842DDD3082C09D195F838000007A8
:100AF00005D5F05D302802D0761E3020F055C6F1C5
:100B00003C00A861F119E960296B884208DA081AEB
:100B100028624FF6EF71288F08402887BDE8F38ED2
:100B200000290ED595F8381001F01401102908D1CC
:100B3000696B6A69891A2A6A891A081A0128A8BF82
:100B40002862BDE8F38E00002DE9F24F04468EB016
:100B5000D4E90001CDE9020104AF9DF8380040F06E
:100B6000200BBBF1610F0AD0206B002848BF062084
:100B700004D408BFBBF1670F01D101202063616875
:100B8000C1F30A5040F2FF7290421CD1080304BF27
:100B90002068002809D10320A0619DF83800613841
:100BA0001A2836D30FF2486108E00320A0619DF8AF
:100BB000380061381A2829D30FF22C61E06803222B
:100BC00000F0FAFBBEE1012816DA204600F02FFC07
:100BD000012811DB00250020BBF1610F20D1E16865
:100BE000302201F8012B4A1CE2609DF83820612A6E
:100BF0000CBF782258220FE0626840F2FE3161F3A8
:100C00001E52451A62604FF0FF30E5E70FF2D451F3
:100C1000D4E70FF2D851D1E70A706169891C61618C
:100C200010B90026002584E1BBF1610F40F09780E8
:100C3000206B00284CBF2126461CDDE90201D4E9C7
:100C400000AB0022002300F013FC36B23ABF8BF059
:100C50000040CDE902A0CDE902AB06F101082D1F4D
:100C60008DF810200DF1110700E0C71DB8F1010F3C
:100C700033DBDDE902010022002300F011FC2CD25D
:100C80001C2102A800F024FCDDE9020100F0A8FC10
:100C9000A8F10708B8F1010F814609DB00F0CCFC90
:100CA00002460B46DDE9020100F0DEFCCDE902015F
:100CB000F81D072105E009F00F0200F8012D4FEAA9
:100CC0002919B9F1010F01DB491EF4D5491E5CBF9A
:100CD000002200F8012DF9D5C7E70DF11100391AEE
:100CE000B142B8BF0E4636B230000DF111072FD415
:100CF000884206DA04A9411849780829A8BF0F21BB
:100D000000DA002104AA821800E0761E12F80139E8
:100D1000401E8B42F9D00F2904D104A941184A780A
:100D2000521C4A70002802D504AF761C2D1D36B225
:100D3000701E0DD4C1190A783032D2B23A2A03DBC0
:100D40009DF838303A3B9A18401E01F80129F2D537
:100D5000206B002840F1ED80701E2063E9E0DDE9A2
:100D600002010022002300F083FB3CBF81F0004120
:100D7000CDE902012DB247F2975068434B49DFF8A5
:100D8000309190FBF1F52DB2C5F1070ABAF1010FD0
:100D900090461CDBDDE902675FEACA7007D5424670
:100DA0004B463046394600F01FFD06460F464FEAD7
:100DB0006A0A4046494642464B4600F015FDBAF1E4
:100DC000000F80468946E7D1CDE9026724E0CAF1E9
:100DD000000A0026374F14E05FEACA7007D5424682
:100DE0004B463046394600F0FFFC06460F464FEAB8
:100DF0006A0A4046494642464B4600F0F5FC8046AA
:100E00008946BAF1000FE7D1DDE9020132463B46DF
:100E100000F0BCFDCDE90201BBF1660F216BDFF8EC
:100E200098900CBF05F10A0006204618142EA8BFA2
:100E3000132630208DF810000DF11107012E3DDB37
:100E4000DDE9020100F0E2FB07F1080104220A23B8
:100E5000B0FBF3F303EB8307A0EB4700303001F85E
:100E6000010D0A20B3FBF0F000EB8007A3EB470372
:100E70003033521E01F8013DE9D1083E012E01F147
:100E80000807DBDBDDE9020100F0C0FB00F0DEFB60
:100E900002460B46DDE9020100F0E6FB00224B466C
:100EA00000F0A2FCCDE90201CAE700BFA086010064
:100EB000000024400000F03F84D797410DF111005D
:100EC000381A0DF1110702E0401E6D1E7F1C3978A3
:100ED0003029F9D0BBF1660F02D12DB2691C04E0B4
:100EE000BBF1650F0CBF01210021226B8E1836B2B9
:100EF000B042B8BF064636B231001AD4814204DA95
:100F0000C85D3528A8BF392000DA3020CA19521E22
:100F100000E0761E12F80139491E8342F9D03928C3
:100F200002D1C85D401CC855002902D57F1E761C21
:100F30006D1C2DB29DF83810009533B23A4620460C
:100F400000F003F80FB0BDE8F08F2DE9F04305463F
:100F500085B01E46D5F83080012E8946174602DA44
:100F600001260FF2902749F02000BDF93040662895
:100F700008BF641C17D0672840F0828014F1040F6A
:100F8000C0F28480444580F2818095F83800641C6A
:100F9000000702D44645B8BFB04624B2B8EB0408F7
:100FA00048BF4FF0000824B2E868A969012C25DA8F
:100FB0004A1C30230B54B8F1010F03DA95F83810AE
:100FC000090702D52E211154521C18EB040FB8BF8B
:100FD000C8F1000424B26142A044B045AA61B8BF80
:100FE0004646696236B2EE613246AB693946181838
:100FF00000F0E2F9A8EB0600A862C1E00818A642DA
:1010000018DA3246394600F0D7F9A9697118A01BE1
:10101000A961B8F1010F686203DA95F8380000079A
:1010200005D5EA682E208854E869401CE861C5F8B7
:101030002880A5E02246394600F0BEF9A8692018AC
:10104000361BB8F1010F03DA95F83810090703D5FC
:10105000EA682E218154401CA86136B2B045B8BF61
:101060004646E868AB6936B23246E119181800F016
:10107000A3F9A8693018A861A8EB060068627FE0B0
:10108000B9F1610F16D14FF0700918E0464504DA46
:1010900095F83810090758BFB046B8F1010848BFA5
:1010A0004FF00008B9F1670F14BF4FF045094FF03A
:1010B000650904E0B9F1410F08BF4FF05009A96973
:1010C000E86817F8013B0B544A1CB8F1010F05DA28
:1010D00095F83810090758BFAA6117D52E21115469
:1010E000531CB8F1010FAB6110DB761E36B2B04570
:1010F000B8BF464636B232463946181800F05CF999
:10110000A8693018A861A8EB06006862E868A969B8
:101110000F18200007F8019B03D42B2007F8010BC0
:1011200003E02D2107F8011B644200260DF1080899
:1011300008E00A2200A800F04CFD019808F8010B15
:10114000761C009C21B20129F3DA022E06DA49F05E
:101150002000652804BF302007F8010B4EB930206D
:1011600007F8010B07E0761E02A8305C303007F864
:10117000010B012EF7DAE868A9690818381AE86146
:1011800095F8380000F0140010280DD16869A9699D
:101190000818696A0818E9690818A96A0818696BC3
:1011A0008842BCBF081A286205B0BDE8F083F8B5D4
:1011B00004460D4616461F46002004E0E86A401C1F
:1011C000E8627F1E002047B116F8011BA868A047FF
:1011D000A8600028F2D14FF0FF30F2BD686A6C744D
:1011E0007A4C00006E616E004E414E00696E6600E2
:1011F000494E4600300050F8041B61B150F8042BF2
:10120000D30744BFA9F101039A180023091F42F82C
:10121000043BFAD1EFE770470278C9B28A421AB1AB
:101220001CBF10F8012FF9E718BF002070470268B3
:10123000531C03601170704700F10103810704D053
:1012400010F8011B89B18107FAD10268B2F10131AE
:10125000914311F0803F04BF50F8042FF6E710F8D7
:10126000011B11B110F8011BFBE7C01A7047704752
:10127000C9B2830706D0521E22D310F8013B99420F
:10128000F7D11FE0083A13D302F1040241EA012129
:1012900041EA014150F8043B121F21BF4B40A3F12A
:1012A000013C2CEA030C1CF0803FF3D0C9B2001FB4
:1012B000083210F8013B521E28BF91EA030FF8D8FC
:1012C00018BF0120401E70471B4213D1094236D17E
:1012D0002AB18446B0FBF2F002FB10C2704700F066
:1012E0007FBCFCD30022002370470B0002000021CA
:1012F00000207047904271EB030CF6D370B5B1FA41
:1013000081F4B3FA83F52C1BA340C4F1200532FA13
:1013100005F63343A2405FF00046E64002E05B087A
:101320005FEA3202841A71EB030524BF2046294686
:101330007641F4D302000B003000002170BD012A79
:10134000CFD970B5140C20D0B1FA81F4B2FA82F57D
:10135000C4F120046419B4F12006D6D3B2405FF082
:101360000044F440002502E052085FEA3303C61A45
:1013700071EB020E24BF3046714664416D41F3D3D8
:1013800002000B002000290070BD0C46B1FBF2F1F9
:1013900002FB11452D0445EA1045B5FBF2F402FBB2
:1013A000145580B240EA0545B5FBF2F002FB10523D
:1013B00040EA044070BD000062B38B0708D0521EA3
:1013C00011F8013B00F8013B00F024808B07F6D1B7
:1013D000830740F0208000BF103A07D330B4B1E853
:1013E0003810103AA0E83810F9D230BC530724BFA7
:1013F000B1E80810A0E8081044BF51F8043B40F8D9
:10140000043BD20724BF31F8022B20F8022B44BF43
:101410000B7803707047083A07D3B1E80810083A10
:1014200040F8043B40F804CBF7D25307E4E730B46C
:10143000436803F0004201211B031B0B436004BF00
:101440000368002B08D10DE00368DD0F45EA440472
:1014500044605B000360491E4468E302F4D5230343
:101460001B0B436043681A434260084630BC704718
:101470004FF4001C1CEB410F94BF1CEB430F09E021
:1014800041EA030C50EA4C0C52EA0C0C03D299428C
:1014900008BF9042704714BF8B42824270470000E1
:1014A0004FF4001C1CEB410F94BF1CEB430F09E0F1
:1014B00041EA030C50EA4C0C52EA0C0C03D28B426A
:1014C00008BF8242704714BF9942904270470000A3
:1014D00070B504460D466068C0F30A5040F2FF71D3
:1014E000884207D16068000304BF2068002817D035
:1014F000022070BD20B92046FFF799FF012868DA65
:10150000012D0FDB40F2FF71091A8D420AD360688A
:10151000002847BF0020304900203049C4E90001BD
:10152000012070BD4142A942616806DA6FF31E5185
:10153000401941EA0050606042E0401E636845196E
:10154000012205F1350062F31F53352801F00041F7
:10155000636003D361600020206070BD002215F13C
:101560001F0F04DA22682360002020356060684283
:1015700014D0521E25689241C0F12003D2439D40F1
:1015800045EAD272256825FA00F6656805FA03F384
:1015900033432360636823FA00F56560606808439D
:1015A000B2F1004F606003D80DD12078C0070AD592
:1015B0002068401C2060206828B96068401C60607A
:1015C0004FF0FF3070BD6068884204BF206800287B
:1015D000F6D1002070BD00BF0000F0FF0000F07FDA
:1015E000F446400D40EAC120490006D200F014F84C
:1015F000004248BF6FF00040604700F00DF84FF028
:10160000004188428CBF084640426047400D40EA96
:10161000C120490080F00D8040F00040490DA1F547
:101620008061491C05D4D1F11F0154BFC840C017C7
:1016300070474FF000007047010040F10980F44608
:10164000404200F005F851F000416047010000BF42
:1016500009D0B0FA80F18840C91CC1F58461090540
:1016600001EBD0214005704770B44FF0004591EA7E
:10167000030F44BF6B4000F0B5BA00BF841A71EB92
:10168000030604D26E40001BB141121973414FF49E
:10169000001C1CEB410F34BF7CEB430684E00C0DB7
:1016A000A4EB1356362E7DDC012E43DC45EAC32322
:1016B00043EA525312BFD20292025B08240545EA64
:1016C000C12141EA5051D2EBC020994125D407D124
:1016D000B0FA80F610FA06F164D00020203608E057
:1016E000B1FA81F6B140C6F1200220FA02F21143AC
:1016F000B0404FEAF474B4EB465434F001064FEABC
:1017000074040AD8D6F50016760D04F00044F040B3
:1017100061FA06F25040F1404840C00A40EA4150A8
:1017200021F0004128BF5FEA500550F1000044EB72
:10173000D12137E045EAC323DB0A45EAC121C90AC2
:10174000B6F120050EDD42EA0242120CC5F1200678
:1017500003FA06F6EB4042EA06056D42984161F154
:1017600000010DE062FA06F5F240554063FA06FC0E
:1017700082EA0C02F3405A406D42904161EB030152
:1017800011F4801F05D1641E620502D06D00404136
:10179000494121F48011430875F1004350F10000E4
:1017A00041EB045170BC70471CEB410F15D223F084
:1017B000004352EA43060BD04FEA4C0CBCEB410FFE
:1017C00004D80C0D661E342EB7DDEBE7801A994164
:1017D00050EA410608BF0021E4E708BF1CEB430FB5
:1017E00028BF6FF00001DDE7B0B581EA030C0CF013
:1017F000004C40F2FF7515EA11541DBF15EA13574E
:10180000AC42AF4239E0E41923EA455343F4801374
:10181000C90241F0004141EA505EC7021100A7FB36
:10182000020200284FF00000EEFB01204FF0000103
:10183000E3FB072118BF42F0010240180021494193
:10184000E3FB0E01A4F580640F0302D25200404175
:10185000494154F101046CDD470872F1004250F136
:10186000000051EB0451A1F580115CBF41EA0C016D
:10187000B0BD4CEA05510020B0BD05EA1357AC429B
:1018800014BFAF4241E050EA410E1CBF52EA430E82
:1018900002E061460020B0BD24423C441BD15FEA17
:1018A000070EF6D0090302BF01460020AEF1140E68
:1018B000B1FA81F7AEEB070401FA07FE0C37C7F166
:1018C000200100FA07F7C8404EEA000E23EA45530C
:1018D00043F48013A2E733F00043B3FA83F704BF65
:1018E000B2FA82FE77440B3FE41BB7F1200E2FBF04
:1018F00002FA0EF3BB40C7F1200E22FA0EFE38BFEB
:1019000043EA0E03BA40641C82E750EA410E14BF5A
:1019100052EA430E6FF000014FF4001717EB430F2C
:101920008ABF194617EB410FB5E74CEA0551002075
:10193000B0BDD4F10104B4F120070FDAC4F12007DF
:10194000520828BF42F0010210FA07F501FA07F722
:10195000E1BF2A43E0403843E1400FE0352C98DCFA
:10196000C7F1200452EA400220FA07F218BF42F001
:10197000010231FA07F0A1400A43002172F100424E
:1019800050F1000051EB0C01B0BD0000F0B540F289
:10199000FF7581EA030C0CF0004C15EA11541DBFD1
:1019A00015EA1357AC42AF42E5E0BC41C1F3130165
:1019B000C3F31303801A994143F4801304D2641EC5
:1019C0004000494180185941C90241EA5051B1FBD8
:1019D000F3F603FB1611A2FB0675D7EBC020A94155
:1019E00002D2761E80185941C90241EA5051B1FB1A
:1019F000F3FE03FB1E11A2FB0E75D7EBC020A9411D
:101A000003D2AEF1010E80185941890241EA90518A
:101A1000760546EA8E2EB1FBF3F603FB1611A2FB08
:101A20000675D7EB8020A94102D2761E8018594155
:101A3000C90241EA50514EEA060EB1FBF3F603FB30
:101A40001611A2FB0675D7EBC020A94102D2761E63
:101A500080185941C90241EA5051B1FBF3F703FB29
:101A60001711A2FB0735D3EBC020A94167F100078E
:101A70000CBF004247F0010766F3D5274FEA1E313D
:101A8000B80814F5806412DDBD0775F1004250EB13
:101A90000E5051EB045111F5801F5CBF41EA0C015F
:101AA000F0BD4CF07F6141F0E0410020F0BDBD078A
:101AB0006D0840EA0E5041F48011D4F10104B4F1F4
:101AC00020060ADAC4F120060200E04001FA06F31B
:101AD000E1401843B24015430EE0342C13DCC6F14C
:101AE000200445EA40056D0820FA06F2154321FA64
:101AF00006F0A1400D43002175F1004250F10000B5
:101B000051EB0C01F0BD00205FEA0C01F0BDCFB934
:101B100092185B41B3FA83F704BFB2FA82F6BF1999
:101B20000B3FB7F120062FBF02FA06F3BB40C7F107
:101B3000200622FA06F638BF3343BA401CB1E41936
:101B4000641E33E77F4231F00041B1FA81F404BFF3
:101B5000B0FA80F6A4190B3CB4F120062FBF00FAAE
:101B600006F1A140C4F1200620FA06F638BF314341
:101B7000A0403C1B1AE7AC421ABF05EA1357AF421C
:101B800012E050EA41061CBF52EA4306BFE750EAA2
:101B90004107304661461CBF41EA0551F0BD52EA9B
:101BA000430C08BFC143F0BD00204FF4001616EBF4
:101BB000410F98BF16EB430F08BF16EB410F24BF30
:101BC000C14305E016EB430F0CBF61464CEA0551DB
:101BD000F0BD91FBF2F303FB1211C0E90031704735
:101BE00070470000841A71EB030603D2001BB14159
:101BF000121973414FF4001C1CEB410F34BF7CEBF6
:101C0000430443E00C0DA4EB1356352E50DC45EA9B
:101C1000C323DB0A45EAC121C912B6F120050DDD57
:101C200063FA05F6EB4086EA0305124218BF45F059
:101C30000105C01851F100010CD213E062FA06F55B
:101C4000F2405540F3415A40B340F3405A408018A7
:101C5000594107D349085FEA30005FEA350528BFDC
:101C600045F0010501F58011420875F1004250F17F
:101C7000000041EB045170BC4FF4001C1CEB410F01
:101C800038BF70470020090D090570471CEB410F54
:101C900010D252EA43060BD0BCEB410F05D80C0D15
:101CA000AB43661E342EB5DD02E0AB4380185941CC
:101CB00070BC704770BC704780B5002200210020C6
:101CC00000F03EFDDFF85808026892B201210020C2
:101CD00000F036FDDFF84C08026892B201210220C4
:101CE00000F02EFD01BDE0B50620DFF83C180968C4
:101CF0000A00C240D1075BD5DFF82C180968012221
:101D000012FA00F00843DFF820180860002000E015
:101D1000401C8C28FCDBDFF814080078002861D018
:101D2000012002904FF4A070019000200090132336
:101D3000DFF8FC07DFF8FC1709684FF4A07202FB1C
:101D40000102DFF8F417042000F0CCFDDFF8EC0707
:101D5000006850F01000DFF8E4170860DFF8D407DF
:101D60000068401CDFF8CC170860DFF8D407007863
:101D7000401CDFF8CC170870DFF8C4070078F028A3
:101D800016D10020DFF8B81708700020DFF8A4177C
:101D900008600020DFF894170870DFF8A0070068DB
:101DA00030F01000DFF894170860592000F007FFAA
:101DB0000720DFF8741709680A00C240D10711D55F
:101DC000DFF864170968012212FA00F00843DFF80F
:101DD000581708600020DFF8681708700120DFF846
:101DE0004C17087007BD000030B5B5B072B6B4200E
:101DF00000F026FF01F0A2F801F067F901F05AFAAD
:101E00005FF4E131042001F09BFB01F031FD4FF460
:101E1000FA7001F043FD01F06AF801F0E7F901F012
:101E200073FD62B60020DFF81C170860DFF81407A6
:101E30000068DFF814170860DFF80C070068DFF8A7
:101E4000E016086044F26820DFF8D8160860002326
:101E500000220021002000F0A7FBDFF8C406036881
:101E60009BB200220121002000F09EFBDFF8B406A7
:101E700003689BB24CF250320121022000F094FB27
:101E8000012000F068FC592000F051FE02210120E1
:101E900001F060FD01F02BF801F0A8F901F001FB61
:101EA00001F0FFFA040001F03CFBDFF8A016086027
:101EB000FF2C51D10020DFF868160860FFF7FCFE08
:101EC000282001F0EBFCDFF888060268BFA130A8EB
:101ED00001F000FE30AA0021002001F0BDF8DFF87B
:101EE00044060268B9A12CA801F0F4FD2CAA012136
:101EF000002001F0B1F8DFF854060268B3A128A869
:101F000001F0E8FD28AA0221002001F0A5F8DFF881
:101F100044060268ADA124A801F0DCFD24AA032137
:101F2000002001F099F8DFF820060268A7A120A898
:101F300001F0D0FD20AA0421002001F08DF8DFF887
:101F400018060268A1A11CA801F0C4FD1CAA052165
:101F5000002001F081F803E00120DFF8C4150860DB
:101F6000DFF8BC05006801288DDB592000F0DFFD9B
:101F70000221012001F0EEFC00F0B9FF01F036F97A
:101F800001F08FFA01F08DFA040001F0CAFADFF8CF
:101F9000BC15086047F23050DFF8A8150860DFF87C
:101FA000BC054068DFF8B4150860DFF8B00580684C
:101FB000DFF8A8154860DFF8A405C068DFF89C15B5
:101FC0008860DFF898050069DFF89015C860DFF8D1
:101FD0008C054069DFF884150861DFF880058069A9
:101FE000DFF878154861DFF874058461012000F09E
:101FF00029FCD0F101000A214843DFF85C15086094
:10200000DFF858054069FF2804D0DFF850058069E3
:10201000FF2804D0DFF8340500680B2824DBDFF844
:102020003C054069512805DB43F2B060DFF8F41449
:10203000086004E044F62060DFF8E814086044F625
:102040002060DFF804150860DFF8FC040068DFF8A2
:10205000D0140860FFF730FE1E2001F01FFC0020A6
:10206000DFF8FC1408606AE1DFF8F0040068FF287C
:1020700038D1DFF8E8044068FF2833D1DFF8DC040A
:102080008068FF282ED1DFF8D404C068FF2829D14A
:10209000DFF8C8040069FF2824D1DFF8C0044069D4
:1020A000FF281FD1DFF8B4048069FF281AD143F656
:1020B0009820DFF894140860DFF868040068B0F531
:1020C0007A5F05DD45F2F050DFF85814086004E04F
:1020D00042F6E060DFF84C1408600120DFF880145D
:1020E00008602CE1B4F10A008D283AD3DFF86C04C3
:1020F0000068FF2835D1DFF864044068FF2830D13C
:10210000DFF858048068FF282BD1DFF85004C0683E
:10211000FF2826D1DFF844040069FF2821D1DFF829
:102120003C044069FF281CD1DFF830048069FF2897
:1021300017D044F26820DFF8EC1308600020DFF8C5
:1021400008140860DFF800040068DFF8D4130860A2
:10215000FFF7B2FD322001F0A1FB0120DFF80414EB
:102160000860FA2C26DADFF800044068DFF8F8137C
:102170000860DFF8F4034460DFF8EC034068DFF840
:10218000E8130968C91C88420EDADFF8DC0300682E
:10219000C01EDFF8D4134968884205DADFF8C803A7
:1021A0000068DFF8C4134860DFF8BC034068DFF85C
:1021B000A0130860DFF894030068401E022807D2CD
:1021C00049F64040DFF88013086014E025750000F0
:1021D000DFF878030068C01E11280CD2DFF88C03EA
:1021E000DFF86813096890FBF1F000F51C5010301F
:1021F000DFF854130860FA2C80F2A180DFF8700336
:102200004068DFF86C130860DFF864038068DFF86B
:1022100060134860CE480068503801F075FCDFF864
:1022200050138860DFF84C030068DFF84C1309682E
:1022300001F082FC5FF07E5101F0FCFC0500CF480C
:102240000068CC49096801F077FC290001F0F2FC34
:10225000CB49096801F030FDC549896801F02CFDC2
:102260000500C64800685FF0804101F025FDC149C6
:10227000096801F061FC5FF07E5101F0DBFCC049B0
:10228000096801F019FDBA49496801F015FD01001E
:10229000280001F07DFD0500B5480068B8490968CF
:1022A00001F00AFDB549096801F006FDB149096868
:1022B00001F042FC290001F0BDFC01F0DDFDA54963
:1022C000086098480068A34909680818954908609B
:1022D0009448006842F6F821884203DA42F6F82072
:1022E000904908608F48006845F6D911884203DBA1
:1022F00045F6D8108B490860201EA0281FD29248AE
:102300000068FFF799F904000D0091480068D0F1CA
:10231000500001F0D3FDFFF78FF90022994BFFF732
:1023200035FB02000B0000209749FFF79DF92200C2
:102330002B00FFF759FAFFF753F9834908609348D8
:1023400040689249086084480068904948608F4816
:1023500040688E4909681E3188420ADA824800685E
:102360001E388A494968884203DA884800688749E4
:1023700048608648406886490860864840688549C4
:10238000086084488068834948606F48006800F5A9
:102390009C4020307E490968401A01F0B5FB7D4918
:1023A00088606B4802685DA118A801F093FB18AA29
:1023B0000021002000F050FE5A48026857A114A8DE
:1023C00001F088FB14AA0121002000F045FE5F48BF
:1023D000026852A110A801F07DFB10AA0221002082
:1023E00000F03AFE6B48806801F06CFD02000B00C3
:1023F0004AA10CA801F06EFB0CAA0321002000F0FA
:102400002BFE4748026845A108A801F063FB08AA13
:102410000421002000F020FE4B4802683FA104A8E0
:1024200001F058FB04AA0521002000F015FE5848D1
:1024300002683AA100A801F04DFB00AA0621002085
:1024400000F00AFE4B4800685349096801F074FB2C
:102450005FF07E5101F0EEFB0400504800684549F2
:10246000096801F069FB210001F0E4FB4C490968AF
:1024700001F022FC4749896801F01EFC040047482E
:1024800000685FF0804101F017FC3A49096801F0EB
:1024900053FB5FF07E5101F0CDFB4149096801F02B
:1024A0000BFC3C49496801F007FC0100200001F0E9
:1024B0006FFC0400374800683949096801F0FCFBEB
:1024C0003649096801F0F8FB2A49096801F034FB34
:1024D000210001F0AFFB01F0CFFC32490860104849
:1024E00000683049096808180D4908600C48006800
:1024F000002802D500200A490860094800684CF20B
:102500005131884203DB4CF2503005490860FFF737
:10251000D3FB1E2001F0C2F927E50000257500005D
:102520007404FF1F7804FF1FA0B004403A44002049
:102530000005FF1FFC04FF1FD0F00F400C8000407F
:10254000384400207C04FF1F8004FF1FE804FF1FA5
:10255000E004FF1FEC04FF1FF804FF1F9C04FF1F93
:10256000E404FF1FF404FF1FC404FF1F80380100B0
:102570008404FF1F4404FF1F4C04FF1FD404FF1FEB
:102580004804FF1F00005E400000F03FCC04FF1F26
:10259000DC04FF1F9004FF1F5404FF1FD804FF1F1B
:1025A0005004FF1FF004FF1F30B4C0B2002803D056
:1025B000022864D048D37DE0DFF8D842246854F084
:1025C0008074DFF8D0522C60C9B200290BD00229E8
:1025D00015D00ED304291ED017D3062927D020D317
:1025E00007292AD02FE04FF48064DFF8AC522C602A
:1025F00060E04FF48064DFF8A4522C60F8E74FF4F9
:102600008064DFF89C522C60F2E74FF48064DFF8BE
:1026100094522C60ECE74FF44074DFF88C522C603D
:10262000E6E74FF48064DFF884522C60E0E74FF473
:102630008064DFF87C522C60DAE74FF48064DFF8C6
:1026400074522C60D4E779E0DFF84842246854F0F3
:102650000074DFF840522C60C9B2002902D0012971
:1026600006D00BE04FF44074DFF84C522C6021E0B0
:102670004FF44074DFF844522C60F8E75EE0DFF876
:102680004042246854F08074DFF834522C60C9B2A0
:10269000002902D0012906D00BE04FF44074DFF886
:1026A00024522C6006E04FF44074DFF81C522C607A
:1026B000F8E743E0DFF81442C0B254F82040C9B252
:1026C00014EBC104DFF80452C0B255F82050C9B26F
:1026D00015EBC105ED6835F00405E560DFF8EC4168
:1026E000C0B254F82040C9B214EBC1042825E560FB
:1026F0000B24DFF8D851C0B255F820502C6092B2AC
:10270000DFF8C841C0B254F82040A2600022DFF8D0
:10271000BC41C0B254F82040E264DFF8B021C0B23E
:1027200052F82020C9B212EBC1019BB20B6100210B
:10273000DFF89821C0B252F82000416030BC7047E9
:10274000DFF88831C0B253F82000C9B210EBC100E5
:1027500092B202617047C0B20100012902D0022981
:1027600013D024E0DFF82C11096851F00071DFF874
:10277000242111604FF4E061DFF83C2111604FF437
:10278000E061DFF83821116011E0DFF834110968E9
:1027900051F08071DFF8282111604FF4C061DFF83B
:1027A000302111604FF4C061DFF828211160DFF89B
:1027B0001C11C0B251F82010496D51F00401DFF82E
:1027C0000C21C0B252F820205165DFF80011C0B2D0
:1027D00051F82010D1F8801051F008013B4AC0B2E6
:1027E00052F82020C2F880100021384AC0B252F8B6
:1027F0002020D1644FF6FF71344AC0B252F8202035
:1028000091603249C0B251F82010D1F8801051F0D7
:1028100001012E4AC0B252F82020C2F880102B4984
:10282000C0B251F82010496D51F00101274AC0B2E1
:1028300052F8202051650021244AC0B252F82000ED
:10284000416070472149C0B251F820104968002208
:102850001E4BC0B253F820004260080000B270471F
:102860001D48006800201C490860002001207047B6
:102870001A480068002019490860002001207047AC
:1028800017480068002016490860002001207047A2
:10289000000000003C80044004B0044008B0044044
:1028A0000CB0044010B004401C90044014C004401C
:1028B00018C004401CC004403090044034900440D0
:1028C00030800440289004404CA004401004FF1FB6
:1028D00048A004402C900440508003405090034096
:1028E00050800B40F0B4049CE4B2002C01D10125CF
:1028F0000AE0E4B2012C01D1022505E0E4B2022C89
:1029000001D1042500E01025DFF8FC61366856F09F
:102910000206DFF8F4713E60DFF8F061366856F0C9
:102920000206DFF8E8713E60DFF8E461C0B24701FB
:10293000B951C0B2460106F1804616F51046326123
:102940000022C0B2460106F1804616F51046B2805C
:10295000EDB2C0B2420102F1804212F510429582FE
:10296000E4B2220212F4E062E4B214F00706324349
:10297000C0B2460106F1804616F51046F280059E6B
:1029800032005204520CC0B2470107F1804717F5DC
:102990001047FA823200D205D20DC0B2470107F1CA
:1029A000804717F51047FA835A4A126832F08002BE
:1029B000584F3A60EDB2C0B2420102F1804212F5C6
:1029C000104295600022C0B2470107F1804717F519
:1029D0001047FA60069A970601D4764200E0002676
:1029E000C0B2470107F1804717F51047BE610A26BC
:1029F000C0B2470107F1804717F51047BE83DBB22D
:102A00005E09313656F08006434FC0B2C655434882
:102A100000684FF40076DBB25F09BE4030433F4EA2
:102A200030603F48DBB25E1150F826003C4EDBB20E
:102A30005F1156F827607669012713F01F0C17FA0B
:102A40000CF7BE4346613748DBB25E1150F82600F2
:102A5000DBB213F01F06D2B212F00307D2B2920912
:102A6000D2B252EA074252F4807240F82620DBB21A
:102A7000002B01D0012000E00020294ADBB25E11CA
:102A800052F82620264EDBB25B1156F823305B69E4
:102A9000012616FA00F033EA000050611F48006872
:102AA0004FF400728B0913F007039A4010431B4A3E
:102AB0001060E4B2002C03D0022C07D003D308E04E
:102AC0000020087105E00020888002E000204860B6
:102AD000FFE70800103810F03F00EDB2EA0052FAAC
:102AE00080F20BE00F4B8C0914F0070453F82430EC
:102AF000C0B24FF4817443F82040401CC0B2D2B23F
:102B00009042EFD3F0BC7047408004403C800440CA
:102B100000900040008000400010024038800440D7
:102B20001C04FF1F3004FF1F3B49086070475C28EE
:102B300000DB5B20202190FBF1F1002903D002296A
:102B400029D014D33AE00121202290FBF2F303FBB9
:102B500012039940314A11600121202290FBF2F3C7
:102B600003FB120311FA03F02D49086026E001214E
:102B7000202290FBF2F303FB12039940294A1160D3
:102B80000121202290FBF2F303FB120311FA03F060
:102B90002549086012E00121202290FBF2F303FB9B
:102BA00012039940214A11600121202290FBF2F387
:102BB00003FB120311FA03F01D49086070475C28FB
:102BC00000DB5B20202190FBF1F1002903D00229DA
:102BD00017D00BD31FE00121202290FBF2F303FB5F
:102BE000120311FA03F01349086014E001212022B6
:102BF00090FBF2F303FB120311FA03F00E49086095
:102C000009E00121202290FBF2F303FB120311FAE9
:102C100003F00A490860704708ED00E080E200E038
:102C200000E100E084E200E004E100E088E200E08E
:102C300008E100E080E100E084E100E088E100E0FC
:102C400010B4494B1B6853F47853474C2360C0B20F
:102C5000002852D0C0B20300302B1ED0322B1FD020
:102C6000602B20D0642B21D06E2B22D0782B23D048
:102C70007D2B24D0822B25D08C2B26D0962B27D0B1
:102C8000A02B28D0AA2B29D0B42B2AD0C82B2BD0EC
:102C9000E12B2CD0FA2B2DD02FE0182200212CE094
:102CA0001822012129E01822182126E018221A21D1
:102CB00023E018221F2120E0132218211DE01322F7
:102CC0001A211AE013221C2117E00E22122114E00F
:102CD0000E22152111E00E2218210EE00E221B21DA
:102CE0000BE00E221E2108E00C221C2105E00B2225
:102CF0001E2102E00A221F21FFE780231B4C2370C4
:102D000012F01F021A4B1A701A4A1268194B1B68EC
:102D100053F47F03174C2360174B184C2360154B5B
:102D20001A6011F01F0151F04001154A1170154948
:102D300009788906FBD5134909784906FBD5002196
:102D40000A4A11700F490978C1F38101C9B20329F8
:102D5000F8D10D4908700C480078022190FBF1F081
:102D60000A49087010BC7047388004400040064093
:102D70000440064000F00140000027014480044068
:102D800005400640064006403B4400203C440020ED
:102D90000821DFF84824126852F40052DFF83C346E
:102DA0001A60DFF83824126832F48032DFF82C34ED
:102DB0001A6019E0DFF82424126832F40042DFF8C8
:102DC0001C341A60DFF81424126852F48032DFF8E1
:102DD0000C341A6000BFDFF80424126832F4803229
:102DE000DFF8F8331A6040000A00511ED2B2002A00
:102DF0000AD00206DED5DFF8E423126852F400425E
:102E0000DFF8D8331A60DDE7704700000821DFF8EB
:102E1000CC23126832F40052DFF8C0331A60DFF8B6
:102E2000BC23126832F48032DFF8B0331A6019E044
:102E3000DFF8A823126832F40042DFF8A0331A60EA
:102E4000DFF89823126852F48032DFF890331A606A
:102E500000BFDFF88823126832F48032DFF87C3359
:102E60001A6040000A00511ED2B2002A0AD002069F
:102E7000DED5DFF86823126852F40042DFF85C33D5
:102E80001A60DDE7704710B50400B1F15000C0B220
:102E9000FFF7BCFFE4B2200950F01000C0B2FFF70A
:102EA000B5FF14F00F0050F00100C0B2FFF7AEFF05
:102EB00010BD70B50400002508E02000C0B2FFF787
:102EC00067FF761CF6B2802EF7DB6D1CEDB2082D85
:102ED0000CDAB5F15000C0B2FFF798FF0120FFF700
:102EE00095FF1020FFF792FF0026EBE770BD38B585
:102EF000002407E00020FFF74BFF6D1CEDB2802D92
:102F0000F8DB641CE4B2082C0CDAB4F15000C0B257
:102F1000FFF77CFF0120FFF779FF1020FFF776FF16
:102F20000025EBE731BD06E040F237510A00511EA3
:102F3000002AFBD1401E0028F6D1704780B500233F
:102F400001220D21DFF8940200F0E4FF00230122AA
:102F50000E21DFF8880200F0DDFF002301220F219F
:102F6000DFF8780200F0D6FF002301221021DFF8FD
:102F70006C0200F0CFFFDFF86402006850F480308C
:102F8000DFF858120860DFF85402006830F480401F
:102F9000DFF8481208603220FFF7C5FFDFF83C0277
:102FA000006850F48040DFF834120860AE20FFF76C
:102FB0002DFF0020FFF72AFF1020FFF727FF4020FA
:102FC000FFF724FF8120FFF721FFC820FFF71EFF36
:102FD000A120FFF71BFFC820FFF718FFA620FFF76F
:102FE00015FFD320FFF712FF0020FFF70FFFD520BA
:102FF000FFF70CFF8020FFF709FFD920FFF706FF3E
:10300000F120FFF703FFDA20FFF700FF1220FFF7A0
:10301000FDFEDB20FFF7FAFE4020FFF7F7FE202041
:10302000FFF7F4FE0020FFF7F1FE8D20FFF7EEFE24
:103030001420FFF7EBFEA420FFF7E8FEA620FFF721
:10304000E5FEAF20FFF7E2FE0020FFF732FF002190
:103050000020FFF718FF01BD2DE9F84304000D0023
:1030600016005FF000085FF00009002715E0DFF8A8
:1030700070015FFA88F8062101FB08005FFA89F900
:1030800019F80000FFF784FE19F101095FFA89F9C8
:10309000B9F1060FEBDBA41D7F1CFFB2B85D002861
:1030A00011D0FFB2B85DB0F12008E4B27F2C01DB93
:1030B00000246D1C2900C9B22000C0B2FFF7E3FE56
:1030C0005FF00009E2E7BDE8F18370B50024002657
:1030D00009E04448205CFFF75BFE641C6D1CEDB208
:1030E000762DF6DB761CF6B2082E06DA3100C9B270
:1030F0001020FFF7C8FE0E25F1E770BD38B500249B
:103100000025002000245DE000203749502202FB0A
:103110000411695C002901D050F0010032495022AD
:1031200002FB0411691891F85010002901D050F0E9
:1031300002002D49502202FB0411691891F8A010D9
:10314000002901D050F004002749502202FB04114D
:10315000691891F8F010002901D050F008002249B8
:10316000502202FB0411691891F84011002901D086
:1031700050F010001C49502202FB0411691891F80C
:103180009011002901D050F020001749502202FB75
:103190000411691891F8E011002901D050F04000A5
:1031A0001149502202FB0411691891F830120029CC
:1031B00001D050F08000C0B2FFF7EAFD6D1C502D29
:1031C000A2DB0834382C08DA082094FBF0F1C9B2ED
:1031D0001820FFF758FE0025F1E731BD80F00F40C1
:1031E000D0440000904100000031002080B5002153
:1031F0001720FFF748FEFF20FFF7CAFD0121172027
:10320000FFF741FEFF20FFF7C3FD02211720FFF764
:103210003AFEFF20FFF7BCFD03211720FFF733FE26
:10322000FF20FFF7B5FD04211720FFF72CFEFF203C
:10323000FFF7AEFD05211720FFF725FEFF20FFF762
:10324000A7FD06211720FFF71EFEFF20FFF7A0FDB8
:1032500000216820FFF717FEFF20FFF799FD0121ED
:103260006820FFF710FEFF20FFF792FD0221682083
:10327000FFF709FEFF20FFF78BFD03216820FFF712
:1032800002FEFF20FFF784FD04216820FFF7FBFD0D
:10329000FF20FFF77DFD05216820FFF7F4FDFF20EB
:1032A000FFF776FD06216820FFF7EDFDFF20FFF711
:1032B0006FFD01BD80B500200021092206210220FA
:1032C00000F084FE8A220721022000F07FFE002009
:1032D0000FE0DFF8542280B24FF4A07303FB00220A
:1032E00089B200238B54491C89B2B1F5A07FF0DB71
:1032F000401C80B2F02801DA0021F5E701BD10B4CE
:103300004FF49653002203E010F822405454521C0C
:103310009A42F9D310BC704710B4002100E0491C58
:103320003C2915D2002205E00123502404FB0104AE
:103330001355521C502AF2D2502303FB0103D35CD5
:10334000FA2BF1DA0023502404FB01041355F0E7B3
:1033500010BC704710B575497348FFF7D0FF73482C
:10336000FFF7DAFF012032E0704A502303FB00220E
:103370008A1812F8012C002A25D16C4A502303FB2D
:1033800000228A5C012A1ED1684A502303FB0022D6
:103390008A185278002A16D1644A502303FB00226F
:1033A0008A185278002A0ED1604A502303FB00226B
:1033B0008A1812F8012C002A05D100225B4B5024F8
:1033C00004FB0033CA54491C4F29CDD3401C3B2871
:1033D00001D20121F8E710BD30B4502100220120B4
:1033E00006E0FF21524A8154FF21524A8154401C79
:1033F0003B2854D250210022012343E04B4C50255E
:1034000005FB00441C1914F8014C002C0FD1474C4B
:10341000502505FB00441C5D012C08D1434C502570
:1034200005FB00441C196478012C00D119003F4CA5
:10343000502505FB00441C1914F8014C012C0FD138
:103440003A4C502505FB00441C5D012C08D1374C3B
:10345000502505FB00441C196478002C00D11A008B
:10346000324C502505FB004494F84F40012C00D10C
:103470004F222E4C502505FB00446478012C00D1CE
:1034800001215B1C4E2BB9D3C9B2D2B29142A8D252
:103490005318274C0355511A264A8154A7E730BCCC
:1034A000704770B500240020012501265920FFF740
:1034B0003EFBFFF74FFFFFF78FFFFFF71FFE0120D7
:1034C00000E0401C3B282ADA1949415CFF2916D04C
:1034D000174941184978FF2911D0002C02D1050065
:1034E000012400E0461CA919022291FBF2F1124AC4
:1034F00011601049104A1268515C104A11700C4951
:10350000415CFF2904D00A4941184978FF2901D0BC
:103510003B2ED6D1064808490968085C00E0FF2028
:1035200070BD0648007870470005FF1F003100207D
:10353000C0430020FC4300205804FF1F39440020F2
:1035400010B4C0B2002808D002282CD018D3042808
:1035500049D039D3052855D063E0DFF8C822126876
:1035600052F48062DFF8BC321A604FF44072DFF828
:10357000B8321A604FF44072DFF8B0321A6050E08F
:10358000DFF8A022126852F40062DFF898321A6065
:103590004FF44072DFF898321A604FF44072DFF84F
:1035A00094321A603DE0DFF87C22126852F48052B7
:1035B0009C4B1A604FF44072DFF87C321A604FF473
:1035C00040729E4B1A602CE0964A126852F40052E8
:1035D000944B1A604FF44072994B1A604FF440724A
:1035E000984B1A601DE0984A126852F48062964B1C
:1035F0001A604FF44072954B1A604FF44072944B2E
:103600001A600EE0904A126852F400628E4B1A6003
:103610004FF440728F4B1A604FF440728E4B1A6019
:10362000FFE78E4AC0B252F82020D27812F0F3029F
:103630008A4BC0B253F82030DA70884AC0B252F8D0
:1036400020209278854BC0B253F820309A70C0B2D7
:10365000002802D0C0B2012805D1814A1278814BDE
:1036600003FB02F304E0804A12787E4B03FB02F373
:103670000A01B3FBF2F292B2B2F5005F01DB41F650
:10368000FF72B3FBF1F192B2B1EB0211734BC0B216
:1036900053F820301B7813F0E003C2F304242343D3
:1036A0006E4CC0B254F8204023706C4BC0B253F83B
:1036B00020305A70694AC0B252F82020927A12F033
:1036C000E00311F01F011943644AC0B252F82020F0
:1036D00091726249C0B251F82010097C51F0880102
:1036E0005E4AC0B252F8202011745C49C0B251F851
:1036F0002010C97851F00C01584AC0B252F820008D
:10370000C17010BC70475549C0B251F820100979FA
:103710008906F8D55149C0B251F82000C0797047E8
:103720004E4AC0B252F8202012791206F8D54B4A00
:10373000C0B252F82000C171704738B504000D00C6
:1037400005E029782000C0B2FFF7EAFF6D1C287859
:103750000028F6D131BD00B585B00020FFF7D3FFBA
:10376000C0B20200414900A800F0B4F900A900204D
:10377000FFF7E3FF05B000BD00B585B00120FFF7FE
:10378000C2FFC0B20200394900A800F0A3F900A9A5
:103790000120FFF7D2FF05B000BD00B599B00220AF
:1037A000FFF7B1FFC0B20200304900A800F092F963
:1037B00000A90220FFF7C1FF19B000BD00B585B018
:1037C0000320FFF7A0FFC0B20200284900A800F0C4
:1037D00081F900A90320FFF7B0FF05B000BD00B5D7
:1037E00085B00420FFF78FFFC0B202001F4900A878
:1037F00000F070F900A90420FFF79FFF05B000BD9D
:1038000000B585B00520FFF77EFFC0B20200174962
:1038100000A800F05FF900A90520FFF78EFF05B0B2
:1038200000BD0000348004403C90044038900440C7
:103830000CB0044010B004400CC0044008C0044068
:1038400040B0044044B004402880044064D00440A8
:1038500060D0044024D0044020D004405C04FF1F0A
:103860003B44002040420F003C440020F848000048
:1038700080B5012300221421074800F04BFB0123EF
:1038800000221521044800F045FB012300221621E7
:10389000014800F03FFB01BD40F00F4080B580B211
:1038A00000F001F801BD80B200281BD01249096860
:1038B00051F00101104A11600021104A116080B2DC
:1038C0001049086005200E49086001200B49086076
:1038D0000A4800680006FBD5084800684008400018
:1038E0000649086070470548006850F080000349A9
:1038F0000860704700000000388004400000044069
:10390000040004400800044080B501230122042182
:103910006C4800F0FFFA012301221221694800F0EF
:10392000F9FA012301221121674800F0F3FA01237B
:1039300001221A21654800F0EDFA012301220F212E
:10394000634800F0E7FA0123012200215D4800F0FE
:10395000E1FA01BD80B5C0B2002806D0022838D0F7
:103960001DD3042869D04ED3ABE0C9B2002905D1DC
:1039700000220F21564800F011FB0FE0C9B20129C7
:1039800005D101220F21524800F008FB06E0C9B220
:10399000022903D10F214E4800F011FB91E0C9B27A
:1039A000002905D100221121474800F0F7FA0FE065
:1039B000C9B2012905D101221121434800F0EEFAD4
:1039C00006E0C9B2022903D111213F4800F0F7FAFD
:1039D00077E0C9B2002905D100220021394800F062
:1039E000DDFA0FE0C9B2012905D1012200213548D5
:1039F00000F0D4FA06E0C9B2022903D1002131480F
:103A000000F0DDFA5DE0C9B2002905D100221A21DB
:103A10002E4800F0C3FA0FE0C9B2012905D10122F6
:103A20001A212A4800F0BAFA06E0C9B2022903D1E5
:103A30001A21264800F0C3FA43E0C9B2002914D184
:103A400000220F21224800F0A9FA002200211D487F
:103A500000F0A4FA002211211B4800F09FFA002276
:103A60001A211A4800F09AFA2AE0C9B2012914D1A1
:103A700001220F21164800F091FA0122002111487D
:103A800000F08CFA012211210F4800F087FA012280
:103A90001A210E4800F082FA12E0C9B202290FD1B1
:103AA0000F210B4800F08BFA0021064800F087FA3E
:103AB0001121054800F083FA1A21044800F07FFA2A
:103AC000FFE701BD80F00F4000F00F4000F10F4014
:103AD000C0F00F400CB41CB5044604A801900A467F
:103AE000009401AB00A9074878441830FCF7AEFCFD
:103AF000009A0021117000285CBF0098001B16BCC2
:103B00005DF80CFB2BD7FFFF002840F10780F4463F
:103B1000404200F003F850F0004060470AD0B0FA8D
:103B200080F18840D1F19D01C905020672F1004281
:103B300041EB10207047000010B5FF2313EAD0546A
:103B40001DBF13EAD1529C429A4239E0A41ADA0707
:103B500080EA0103134042EA012142EA0020421AAE
:103B60003CBF641E01EB4202090AB2FBF1FE01FBFD
:103B70001E221202B2FBF1F001FB10226EF30F20A5
:103B80001202B2FBF1FE4EEA00207F3406DDFE2C6D
:103B900024DA53EA500050EBC45010BDD4F10204B3
:103BA00001FB1E2240F08071192C1DDC21FA04F06B
:103BB000C4F12004A140114371F10042584110BDED
:103BC0009C421ABF03EAD1529A420FE080EA010EEA
:103BD0000EF00043400004D0490016D143F0FF40EE
:103BE00010BD490008BFD343180010BD9C4205D149
:103BF000D21AF7D001F00041484010BD4A0212BF6E
:103C00000846484000F0004010BD4AB90902B1FA28
:103C100081F2914044B1A418C00140F000409EE7F9
:103C2000C90141F0004152420002B0FA80F4A040C4
:103C3000141B94E790EA010F44BF81F0004100F0AB
:103C4000AFB800BF421A3CBF801A89184FF0004C31
:103C5000C0F3C752FF2A24D0C1F3C75313B3D21AFB
:103C6000D2F1190327DD4CEA01214CFA03F321EAD2
:103C70000303D140C20D4CEA0020401834BF20EAB3
:103C80000C004CEA5000D20553EA006373EB0C0CB5
:103C900052EB1020420012F1807F38BF7047C00DF8
:103CA000C0057047490212BF9A4200EB5120F8E765
:103CB000D2F11703D9D57047FF2212EAD05C1DBF9D
:103CC00012EAD153944593422BE09C44D30780EAF7
:103CD00001021A4043EA002043EA0121A1FB00301F
:103CE000410038BF40007CF17F010BDBFE294ADA3E
:103CF0005B0842EAC15153EA006373F1004C51EB97
:103D000010207047D1F1080CDCF120012FDB5B089B
:103D100010FA01F10B4373F1004120FA0CF050410D
:103D2000704794451CBF02EAD153934280EA0102D6
:103D300002F000421DD0400019D0490017D05BB9F5
:103D4000634514D00902B1FA81F39940BCEB030C2E
:103D5000C00140F00040C1E70002B0FA80FC10FA58
:103D60000CF0B3EB0C0CC90141F00041B6E71000B8
:103D7000704740000AD0490008D010F1807F94BFFE
:103D800011F1807F02E042F0FF407047D04370475E
:103D900090EA010F44BF81F00041FFF753BF00BF1D
:103DA000431A4FF000423EBF5340C01AC91800BF2B
:103DB000D3095FEAD05C13EB400F34BFB3EB410F84
:103DC00040E07CEBD1530CD342EA012122D8D1EB65
:103DD000402009D3400A28BF5FEA500140EBCC5095
:103DE0007047401A15D04002B0FA80F2521C904041
:103DF000400A4FEA3C23B3EB026384BF00EB73003D
:103E000007E040F400001A16DB07C2F10102D040BF
:103E100018437047182BFCDC31FA03F202FA03F363
:103E2000591A38BF42F00102D2EB40203CBF40009B
:103E3000ACF1010C5FEACC5CC20572F100414CEBC5
:103E40005020704713EB400F0FD24B0009D0ACEB62
:103E5000D153022B03DB4902172BDDDD7047914361
:103E6000401A4300D5D10020704713EB410FD0D347
:103E70006FF00000704700004100090E7F3915D433
:103E8000D1F11F0114D4400007D2C00140F000401E
:103E9000C84048BF6FF000407047C00140F000408C
:103EA000C8404CBF4FF00040404270470020704770
:103EB00000424FF0004058BFC0437047002848BF41
:103EC000404270475FF0FF0C1CEAD05114BF6145BF
:103ED00006E0C110400721F0E04101F16051704758
:103EE00079B900F0004100020AD0B0FA80FC00FA73
:103EF0000CF001F16051A1EB0C5101EBD021400518
:103F0000704741020CBF40F4E0016FF00001002057
:103F10007047000070B4914C246854F478548F4D6D
:103F20002C6005008E4EAD1B08D0403D08D0403DB2
:103F300008D0403D08D0403D08D009E0894C07E05A
:103F4000894C05E0894C03E0894C01E0894CFFE78E
:103F50004FF4807544F82150D2B2012A15D142693C
:103F600001248C4022434261012B06D102680123C7
:103F700013FA01F1114301600EE00268012313FA04
:103F800001F132EA0101016006E04269012313FAFE
:103F900001F132EA0101416170BC7047012A06D18A
:103FA0000268012313FA01F11143016006E002687F
:103FB000012313FA01F132EA01010160704702683E
:103FC000012313FA01F151400160704710B5634BB2
:103FD0001B684FF4007484402343604C2360674B9C
:103FE000C0B253F82030C9B2D2B2140414F4702411
:103FF000D2B2D209D2B2224352F4817243F82120C4
:104000005D4AC0B252F820205269012313FA01F12F
:1040100032EA0101584AC0B252F820205161C0B2C0
:104020005730FEF784FD10BD0020554909680A008D
:10403000C240D10707D552490968012212FA00F09F
:1040400008434F49086001204D4909680A00C240F1
:10405000D10707D54A490968012212FA00F008433E
:1040600047490860704780B51420464909680A002E
:10407000C240D1070BD543490968012212FA00F06A
:1040800008434049086000210020FFF763FC152029
:104090003C4909680A00C240D1070BD53949096873
:1040A000012212FA00F0084336490860002101207D
:1040B000FFF750FC1620334909680A00C240D107B7
:1040C0000BD530490968012212FA00F008432D4946
:1040D000086000210220FFF73DFC01BD00202A49B5
:1040E00009680A00C240D10707D52749096801229B
:1040F00012FA00F0084324490860012022490968A7
:104100000A00C240D10707D51F490968012212FAE7
:1041100000F008431C490860704700201B490968EB
:104120000A00C240D10707D518490968012212FACE
:1041300000F00843154908600120144909680A0085
:10414000C240D10707D511490968012212FA00F0CF
:1041500008430E49086070470000000038800440A2
:1041600000F00F400090044000A0044000B0044064
:1041700000C0044000D004401C04FF1F3004FF1F97
:10418000A0900440A0A00440A0C00440A0D00440DF
:10419000000000000000000000000000000000001F
:1041A000000000000000000000000000000000000F
:1041B000000000000000000000003F3F3F3F3FC004
:1041C000C0C0C0C0000000000000000000000000EF
:1041D00000000000000000000000000000000000DF
:1041E00000000000000000000000000000000000CF
:1041F0000000000000000000000080C0E0E0F0F0DF
:10420000F0F00000000000F0F0F0F0F0F0F0F0F05E
:10421000F0F0F0F0F0F0F0F0F0F0F0F0F0F0F0F09E
:10422000F0F0F0F0F0F0F0070707070700000000DB
:10423000000000000000E0F0F0F00000000000606E
:10424000E0E0C0000000000000C0E0E0E06060606E
:10425000607070303000E0E0E0E02060E0E0E040DE
:10426000F0FEFFFFFFFFFFFFFFFF0000000000FF69
:10427000FFFFFFFFFFFFFFFF1F1F1F1F1F1F1F1F4E
:104280001F1F1F1F1F1F1F1F1F1F1FFFFFFFFFFEDF
:10429000FEFEFEFE0000000606060606C6FEFFFF46
:1042A0001F070606FEFEFE06060686C66606000018
:1042B00000FFFFFFFF3030F0F0F0F0303000FFFF84
:1042C000FFFF4078FFFFFF80FFFFFFFFFFFFFFFFC3
:1042D000FFFF0000000000FFFFFFFFFFFFFFFFFFE9
:1042E00000000000000000000000000000000000CE
:1042F000000000FFFFFFFFFFFFFFFFFF00000000C7
:1043000000C0F0FEFF3F0780C0C06070FFFFFF0EDF
:10431000070301000000000000FFFFFFFF0000FF97
:10432000FFFFFF000000FFFFFFFF0000FFFFFFFF98
:10433000FFFFFFFFFFFFFFFFFFFF0000000000FF88
:10434000FFFFFFFFFFFFFFFF000000000000000075
:104350000000000000000000000080FFFFFFFFFFE2
:10436000FFFFFFFF000000040F0F07030000030121
:1043700001000000070F0F0E0C0C0C0C0C0C0000C1
:104380000407070707060203030303030300070FDD
:104390000F07030303030100FFFFFFFFFFFFFFFF02
:1043A000FFFF0000000000FFFFFFFFFFFFFFFFFF18
:1043B000FFFFFFFFFFFFFFFFFFFFFFFFFFFFFFFF0D
:1043C000FFFFFFFFFFFFFFFFFFFFFFFF00000042B7
:1043D0004242FEFEFFE743434100061E3E3C3000E2
:1043E000FFFFFFFF000000004040FFFFFFFF400015
:1043F000080808080808FFFFFFFF08080808080861
:104400007FFFFFFFFFFFFFFFFFFFC0C0C0C0C0C1B5
:10441000C1C1C1C1C1C1C1C1C1C1C1C1C1C1C1C18C
:10442000C1C1C1C1C1010101010101FFFFFFFFFFC6
:10443000FFFFFFFF000000FFFF00FFFFFF00FEFF88
:104440000000030F1F1E1800FFFFFFFF8080000009
:104450008080FFFFFFFF400000021A7AFAF2E38338
:1044600083C3F2FE7E3E0E0000070F1F3F3F7F7F9B
:104470007F7F7F7F7F7F7F7F7F7F7F7F7F7F7F7F4C
:104480007F7F7F7F7F7F7F7F7F7F7F7F7F000000B9
:104490000000007F7F7F3F3F1F0F07000000007F6D
:1044A0007F007F7F7F003F7F00000301010101014A
:1044B0007F7F7F7F0000000040607F7F7F3F0000A4
:1044C00000406070787D3F1F1F3F7F787060400024
:1044D0000000000000000000002F000000000700A6
:1044E000070000147F147F1400242A7F2A12006220
:1044F00064081323003649552250000005030000CC
:1045000000001C224100000041221C000014083E53
:1045100008140008083E0808000000A06000000819
:10452000080808080000606000000020100804026D
:10453000003E5149453E0000427F4000004261512B
:104540004946002141454B31001814127F100027C5
:1045500045454539003C4A49493000017109050388
:1045600000364949493600064949291E00003636B9
:10457000000000005636000000081422410000141C
:1045800014141414000041221408000201510906F9
:1045900000324959513E007C1211127C007F49497A
:1045A0004936003E41414122007F4141221C007FAB
:1045B00049494941007F09090901003E4149497AB9
:1045C000007F0808087F0000417F41000020404133
:1045D0003F01007F08142241007F40404040007F9F
:1045E000020C027F007F0408107F003E4141413EE3
:1045F000007F09090906003E4151215E007F09192B
:1046000029460046494949310001017F0101003F27
:104610004040403F001F2040201F003F4038403FA7
:10462000006314081463000708700807006151490B
:10463000454300007F41410000552A552A5500009E
:1046400041417F000004020102040040404040401C
:10465000000001020400002054545478007F4844B4
:10466000443800384444442000384444487F0038EB
:104670005454541800087E0901020018A4A4A47C14
:10468000007F080404780000447D400000408084DE
:104690007D00007F102844000000417F4000007C26
:1046A00004180478007C0804047800384444443832
:1046B00000FC242424180018242418FC007C08047E
:1046C000040800485454542000043F444020003C57
:1046D0004040207C001C2040201C003C4030403CDE
:1046E000004428102844001CA0A0A07C004464546E
:1046F0004C4414141414141480B500F053F800F052
:1047000003F8FDF771FB01BD80B51C481C498842C8
:104710000BD0002006E01A4951F82010174A42F841
:104720002010401CB0F5826FF5D31448FEF7FCF959
:104730001449154A1548801A03E013780B70521C6F
:10474000491C0300581E002BF7D111491148401A8B
:1047500002E000220A70491C0200501E002AF8D113
:104760000D490E4A0E48801A03E013780B70521C54
:10477000491C0300581E002BF7D101BD0000FF1F8C
:10478000000000001004FF1FDC470000404800004C
:104790007404FF1F40440020404400201004000027
:1047A0001004000080B500F009F80A4800884FF6B0
:1047B000FE7108400749088001BD000072B64CF246
:1047C0002050054908804DF628100349088062B63C
:1047D00070470000002005400E2005400080034087
:1047E0000090034000800B4000F00F4040F00F406D
:1047F00080F00F40C0F00F4000F10F4000900440E7
:1048000000A0044000B0044000C0044000D00440B8
:104810000000F0410000964200409C47000010411B
:1048200000C8AF470100000000A0064000B00640ED
:1048300000C0064000D0064000A00E4000B00E4070
:104840000D48006850F001000B49086070470B48A4
:10485000006850F001000949086070470848006886
:1048600050F001000649086070470648006850F0A3
:1048700001000449086070470C7103401C7103403B
:104880002C7103403C71034010B50749794418313D
:10489000064C7C44163404E00A68081D5118884709
:1048A0000146A142F8D110BD08000000140000002C
:1048B00047C9FFFFCC3F01007404FF1F0000000048
:1048C0000120C046002801D0FFF7DEFF0020C046CF
:1048D000C046FDF789FA00F000F800F001B80000CA
:1048E0000746384600F002F8FBE7000020210903E4
:1048F00026311820ABBEF9E7C4E3B7A2CBCDB5C4CF
:10490000CAFDBEDDCEAAA3BA25630A00C046C046D2
:08491000C046C046FFF7D4FFCA
:040000050000490DA1
:00000001FF
